:020000040000FA
:040000004AEF00F0D3
:100008005182D9CF45F0DACF46F0F3CF47F0F4CF9D
:1000180048F0F2AA12EF00F014EF00F01FEF00F022
:10002800F2A419EF00F01BEF00F01FEF00F091ECC5
:1000380004F040EF00F0F2AC24EF00F026EF00F0FF
:1000480040EF00F09DA02BEF00F02DEF00F040EF07
:1000580000F09EA032EF00F034EF00F040EF00F027
:1000680075EC06F040EF00F040EF00F040EF00F0D4
:1000780040EF00F040EF00F048C0F4FF47C0F3FF46
:1000880046C0DAFF45C0D9FF5192110055EF05F07F
:1000980002500F0B0001626F02380F0B0F0B646FD9
:1000A800ABEF01F0000E156E000E166E000E176E07
:1000B800000E186E1550161017101810D8B467EFE8
:1000C80000F069EF00F0E9EF01F0000E156E000E88
:1000D800166E000E176E000E186EE9EF01F0E9EFCC
:1000E80001F026500318D8B47CEF00F07EEF00F042
:1000F80087EF00F003C026F026C049F0000E78EC28
:1001080005F087EF00F004C025F005C024F0E9EF02
:1001180001F0D5AE92EF00F094EF00F098EF00F008
:10012800E9EF01F0E9EF01F03E506AEC06F09DEFCF
:1001380000F08992A0EF00F0D768D6687CEC06F052
:10014800A6EF00F08A94E9EF01F0E9EF01F003501F
:100158001F0B00081F0F3F6E04501F0B00081F0FD6
:100168003E6ED5AEBAEF00F0BCEF00F0C1EF00F084
:100178003E506AEC06F0E9EF01F03F506AEC06F0F9
:10018800E9EF01F0E9EF01F00DEC06F00001645130
:10019800D8B4D1EF00F0D3EF00F0DFEF00F003A008
:1001A800D8EF00F0DAEF00F0DFEF00F08992E9EF26
:1001B80001F0E9EF01F08982E9EF01F0E9EF01F0E0
:1001C800E9EF01F003A0EBEF00F0EDEF00F0F2EF44
:1001D80000F08A8EF5EF00F0F5EF00F08A9EF5EF5B
:1001E80000F003A2FAEF00F0FCEF00F001EF01F0DD
:1001F8008A8CE9EF01F0E9EF01F08A9CE9EF01F060
:10020800E9EF01F0E9EF01F003C021F0E9EF01F0B7
:100218007BCF63F03E506AEC06F0100E4C6E940EE5
:10022800E82EFED74C2EFCD700D00350D8B41FEFD1
:1002380001F021EF01F030EF01F08B8024EF01F0A5
:100248008B8427EF01F0010E1526000E16221722C7
:10025800182200F042EF01F08B9033EF01F08B840D
:1002680036EF01F0FF0E1526FF0E1622FF0E17229D
:10027800FF0E182242EF01F042EF01F08B9445EF98
:1002880001F0100E4C6E940EE82EFED74C2EFCD7C3
:1002980000D0000163516AEC06F0E9EF01F003C0F9
:1002A80060F004C061F060C0D9FF61C0DAFF05C02A
:1002B800DFFFE9EF01F0020E656F87EF01F0010E35
:1002C8006525D96EDA6A000EDA222C50020D000E6E
:1002D800F324E16E010EF420E26EDECFE6FFDDCFFF
:1002E800E5FF2C2A7F0E2C18D8A47DEF01F07FEFB4
:1002F80001F083EF01F0000E2C6E83EF01F0020E87
:10030800652787EF01F064514C6E4D6A020E4C264A
:10031800000E4D2265514E6E4F6A4C504E5C4F5048
:10032800800A506E4D50800A5058D8A09EEF01F0B8
:10033800A0EF01F063EF01F0E9EF01F0E9EF01F060
:10034800E9EF01F0FF00E9EF01F0E9EF01F000014A
:1003580062514C6E4D6A4D50000AD8B4B6EF01F0A8
:10036800E9EF01F04C50000AD8B456EF00F0010A4A
:10037800D8B475EF00F0040AD8B48DEF00F0030A82
:10038800D8B4ABEF00F0010AD8B4C8EF00F00F0AF8
:10039800D8B4E6EF00F0010AD8B408EF01F0020A79
:1003A800D8B40CEF01F0070AD8B453EF01F0010AF2
:1003B800D8B45FEF01F0030AD8B4E9EF01F0010AFD
:1003C800D8B4A6EF01F0E9EF01F012001EEC06F038
:1003D8007AEC06F0F29478EC06F09E90F28EF5EF47
:1003E80001F08A8EFAEF01F0FAEF01F08A8CFFEF44
:1003F80001F0FFEF01F08A8804EF02F004EF02F049
:100408008B9407EF02F03F506AEC06F00CEF02F015
:1004180089820FEF02F0F28C000E3BEC06F0266E9C
:10042800800E256E000E246E1AEF02F0C5EC03F064
:10043800050E2A18D8A423EF02F025EF02F071EF79
:1004480002F02350D8A42BEF02F02DEF02F04DEF6D
:1004580002F026500118D8B434EF02F036EF02F05B
:1004680049EF02F025500118D8B43DEF02F03FEFF4
:1004780002F049EF02F00128D8A445EF02F047EF57
:1004880002F04DEF02F049EF02F04CEC00F04DEFB6
:1004980002F0000E2A6E26500118D8B456EF02F06A
:1004A80058EF02F06BEF02F025500118D8A45FEF67
:1004B80002F061EF02F071EF02F02450D8B467EF58
:1004C80002F069EF02F071EF02F06BEF02F0010E3B
:1004D800296E71EF02F071EF02F0E6EC02F021A054
:1004E80078EF02F07AEF02F01AEF02F021A27FEF24
:1004F80002F081EF02F0A3EF02F02D50D8B487EF9D
:1005080002F089EF02F092EF02F081B08EEF02F074
:1005180090EF02F0CEEF02F092EF02F02D50D8A447
:1005280098EF02F09AEF02F0A3EF02F081B29FEF8A
:1005380002F0A1EF02F0CEEF02F0A3EF02F021B239
:10054800A8EF02F0AAEF02F01AEF02F02D50D8B48B
:10055800B0EF02F0B2EF02F0BBEF02F081A0B7EF0C
:1005680002F0B9EF02F0CEEF02F0BBEF02F02D502F
:10057800D8A4C1EF02F0C3EF02F01AEF02F081B283
:10058800C8EF02F0CAEF02F01AEF02F0CEEF02F065
:10059800CEEF02F00DEC06F021A4D5EF02F0D7EF74
:1005A80002F01AEF02F089821AEF02F01AEF02F055
:1005B8001AEF02F01AEF02F01AEF02F01AEF02F047
:1005C8004AEF00F02950D8A4ECEF02F0EEEF02F069
:1005D800ABEF03F0C4EF03F0C4EF03F0ABEF03F0AD
:1005E800AC8A000E4B6ED5AEFCEF02F0FEEF02F0C7
:1005F80001EF03F04B8001EF03F081A606EF03F053
:1006080008EF03F00BEF03F04B820BEF03F081A030
:1006180010EF03F012EF03F015EF03F04B8415EF22
:1006280003F081A21AEF03F01CEF03F01FEF03F0B1
:100638004B861FEF03F02350D8B425EF03F027EFC4
:1006480003F02AEF03F04B8E2AEF03F0000E236E1F
:100658002B5000082C24016E01AE35EF03F037EF64
:1006680003F03BEF03F07F0E01263BEF03F015C0CC
:1006780002F016C003F017C004F018C005F01550BA
:1006880002180FE1165003180CE11750041809E17D
:1006980018500518D8B453EF03F055EF03F05DEF89
:1006A80003F015C002F016C003F017C004F018C01C
:1006B80005F04BC022F04BC0ADFF000E286E050EB2
:1006C800276E020E296EC4EF03F09EB86EEF03F09A
:1006D80070EF03F074EF03F0C4EF03F0C4EF03F01E
:1006E8002850010D010EF324D96E000EF420DA6EA5
:1006F800DF5022262850010D010EF324D96E000E7A
:10070800F420DA6EDF50AD6E282A27502818D8A4B6
:1007180090EF03F092EF03F0C4EF03F0030E296E9D
:10072800C4EF03F0C4EF03F09EB89DEF03F09FEF12
:1007380003F0A3EF03F0C4EF03F0C4EF03F022C00B
:10074800ADFF000E296EC4EF03F0C4EF03F029508B
:10075800496E4A6A4A50000AD8B4B5EF03F0C4EFAC
:1007680003F04950010AD8B4F4EF02F0030AD8B4F0
:1007780069EF03F0010AD8B498EF03F0C4EF03F06F
:1007880012002FEC06F00009D8B4CDEF03F0CFEF3C
:1007980003F090EF04F0AC9A000E296E6FEF04F0AE
:1007A80090EF04F06FEF04F0B5EC05F0AA0AD8A4B6
:1007B800E0EF03F0E2EF03F090EF04F0010E2A6E91
:1007C80090EF04F090EF04F0B5EC05F0016E01C075
:1007D80022F0020E2A6E90EF04F0B5EC05F0026EDE
:1007E80002380F0B0F0B276E025022262750D8B461
:1007F80000EF04F002EF04F008EF04F0030E2A6E95
:10080800000E286E90EF04F0040E2A6E90EF04F0AC
:1008180090EF04F0282A2850496E4A6A010E4926AA
:10082800000E4A22010E4924D96E000E4A20DA6EC3
:10083800B5EC05F0DF6E2850496E4A6A010E49266C
:10084800000E4A22010E4924D96E000E4A20DA6EA3
:10085800DF50222627502818D8A435EF04F037EFA8
:1008680004F090EF04F0040E2A6E90EF04F090EF7D
:1008780004F02850496E4A6A020E4926000E4A22A0
:10088800010E4924D96E000E4A20DA6EB5EC05F047
:10089800DF6E2850496E4A6A020E4926000E4A2227
:1008A800010E4924D96E000E4A20DA6E2250DE1855
:1008B800D8A461EF04F063EF04F067EF04F0000ED2
:1008C800236E69EF04F0010E236E050E2A6E90EF79
:1008D80004F090EF04F02A50496E4A6A4A50000A20
:1008E800D8B479EF04F090EF04F04950000AD8B476
:1008F800D8EF03F0010AD8B4E8EF03F0030AD8B43C
:10090800F1EF03F0010AD8B40EEF04F0070AD8B4E7
:100918003DEF04F090EF04F01200F2941C50D76EF3
:100928001BC0D6FF2B502C18D8A49DEF04F09FEFC6
:1009380004F0ADEF04F080EC06F082EC06F0A5EFD1
:1009480004F08A84A8EF04F03F506EEC06F022EF22
:1009580005F0CD902B50416E426AD8904136423610
:10096800000E4124436E010E4220446E010E4324C2
:10097800D96E000E4420DA6EDF50D8A4C6EF04F01A
:10098800C8EF04F0E5EF04F0CD8A2B50416E426ABF
:10099800D89041364236000E4124D96E010E4220CD
:1009A800DA6EDF50436E4350020D2E0EF324D96EDB
:1009B800000EF420DA6EDECF1FF0DDCF20F0F4EF6A
:1009C80004F0CD9A2B50020D000EF324D96E010EBF
:1009D800F420DA6EDECF1FF0DDCF20F0F4EF04F064
:1009E800000E2D6E1FA0FBEF04F0FDEF04F004EFE6
:1009F80005F0010E2D6E1F06D8A0200604EF05F0A5
:100A08001F502010D8B40BEF05F00DEF05F012EFD2
:100A180005F023EC05F0CD8012EF05F02B2A7F0EB0
:100A28002B18D8A41AEF05F01CEF05F022EF05F0FB
:100A3800000E2B6E22EF05F022EF05F012009E90BB
:100A48002050CF6E1FC0CEFF2D50D8B42EEF05F02A
:100A580030EF05F03FEF05F08B8033EF05F08B8426
:100A680036EF05F0010E1526000E16221722182261
:100A780000F051EF05F08B9042EF05F08B8445EFC5
:100A880005F0FF0E1526FF0E1622FF0E1722FF0E89
:100A9800182251EF05F051EF05F08B9454EF05F053
:100AA8001200A40EF66E0C0EF76E000EF86E00EE35
:100AB8002EF010EE12F00900F5CFEEFFE550E150F0
:100AC800FAE101EE00F0FE0EEE6AE806FDE100EE46
:100AD80001F02D0EEE6AE806FDE151905192000EEC
:100AE800F86E0001EAEF01F04A6E000EF2BE010E48
:100AF8004B6E4AC0A9FF49C0A8FFA69EA69CA68423
:100B0800F29E550EA76EAA0EA76EA6828CEF05F070
:100B1800A6B291EF05F093EF05F08CEF05F0A694DF
:100B28004BB002D0F29E01D0F28E1200D59CF10E8D
:100B3800D76E590ED66ED650D7CF4BF04C6A4BC0F5
:100B48004CF04B6A4B101B6E4C501C6EF294F28AA0
:100B5800000E496E000E4A6E60EC06F0950ED56EDA
:100B68001200B7EF05F09EAABCEF05F0BEEF05F046
:100B7800B7EF05F0ABA2C3EF05F0C5EF05F0C9EF7D
:100B880005F0AB98AB88C9EF05F0AE50CCEF05F097
:100B98001200000E896EC40E8A6E000E8B6EF90E5E
:100BA800926E2B0E936EC20E946E400E0F015D6F07
:100BB800200E5C6F2D0E5B6F030E856EF19E12008A
:100BC800000ECC6EF40ECF6E480ECE6ECECF1FF058
:100BD800CFCF20F09E909D80000E496E000E4A6E89
:100BE8005BEC06F0030ECD6E1200700ED36E000E95
:100BF800D26E800E9B6E000EB56E03EF06F0D2AE7D
:100C080008EF06F00AEF06F003EF06F00CEF06F027
:100C1800120078EC06F07AEC06F013EF06F08A84FE
:100C280016EF06F03F506AEC06F0000E2C6E000E30
:100C38002B6E12007EEC06F0CDEC05F0F9EC05F019
:100C480072EC06F065EC06F0E4EC05F09AEC05F0C1
:100C580047EC06F012009EBA34EF06F037EF06F0C4
:100C6800010E38EF06F0000E3AEF06F01200496E5A
:100C780049C0A9FFA69CA69EA68000F000F0A85037
:100C880046EF06F01200080EB86E900EAB6E040E1A
:100C9800AC6E330EAF6E000EB06E12000000000096
:100CA80060156115B68AB78AD2B1D3B11E1E49C084
:100CB80019F04AC01AF0120049C01DF04AC01EF0CF
:100CC8001200E80E7C6E1F0E7B6E1200496E49C042
:100CD8007BFF1200406E40C07BFF1200B00E7D6E9D
:100CE800120023EC05F01200CD901200D59E1200E0
:100CF800D58E1200D09E1200CD901200D59E120003
:020000040020DA
:08000000FFFFFFFFFFFFFFFF00
:020000040030CA
:0E00000023225F3CFFD385FF0FC00FE00F40AF
:0200000400F00A
:080000000100000000000000F7
:00000001FF
